:020000040800F2
:10000000700D0020A9030008552B0008572B00088D
:100010005B2B00085F2B0008632B0008000000002A
:10002000000000000000000000000000672B000836
:10003000692B0008000000006B2B00086D2B0008E6
:10004000C3030008C3030008C3030008C303000878
:10005000C3030008C3030008C3030008C303000868
:10006000C3030008C3030008C3030008D3670008E4
:10007000C3030008C3030008C3030008C303000848
:10008000C3030008C3030008C3030008C303000838
:10009000C3030008C3030008C30300086F2B000854
:1000A000C3030008C3030008C3030008C303000818
:1000B0000B60000851600008C3030008C303000878
:1000C000C3030008C3030008C3030008C3030008F8
:1000D000C3030008712B0008C3030008C303000812
:1000E000C3030008C3030008C303000800F002F8BC
:1000F00000F05AF80AA090E8000C82448344AAF168
:100100000107DA4501D100F04FF8AFF2090EBAE865
:100110000F0013F0010F18BFFB1A43F0010318473B
:10012000B8850000D88500000A444FF0000C10F894
:10013000013B13F0070408BF10F8014B1D1108BF65
:1001400010F8015B641E05D010F8016B641E01F805
:10015000016BF9D113F0080F1EBF10F8014BAD1C55
:100160000C1B09D16D1E58BF01F801CBFAD505E073
:1001700014F8016B01F8016B6D1EF9D59142D6D3CD
:10018000704700000023002400250026103A28BFF5
:1001900078C1FBD8520728BF30C148BF0B607047F9
:1001A0001FB51FBD10B510BD08F02FFA1146FFF79F
:1001B000F7FF06F07EF808F04DFA03B4FFF7F2FF00
:1001C00003BC08F051FA00000CB50020019000902B
:1001D0006C48006840F480306A49086000BF694894
:1001E000006800F4003000900198401C01900098D5
:1001F00018B90198B0F5A06FF1D16248006800F419
:10020000003010B10120009001E000200090009823
:10021000012843D15C48006840F010005A4908604A
:100220000846006820F0030008600846006840F0B7
:1002300002000860534840685249486008464068D8
:1002400048600846406840F480604860084640685E
:1002500020F47C1048600846406840F4E81048608C
:100260000846006840F08070086000BF454800689C
:1002700000F000700028F9D04248406820F00300E8
:10028000404948600846406840F00200486000BFAE
:100290003C48406800F00C000828F9D10CBD10B5AE
:1002A000FFF792FF10BD10B53648006840F001001E
:1002B000344908600846406834490840314948607C
:1002C00008460068324908402E4908600846006820
:1002D00020F4802008600846406820F4FE00486052
:1002E0004FF41F008860FFF7DAFF4FF000602949E4
:1002F000086010BD10B5002100200022214B5B6872
:1003000003F00C0121B1042906D0082928D107E007
:10031000214B224C236027E01F4B204C236023E01D
:10032000184B5B6803F47010164B5B6803F4803263
:10033000022303EB904022B9194B4343174C23602F
:100340000DE0104B5B6803F4003323B1144B4343BF
:10035000124C236003E0104B4343104C236003E036
:100360000D4B0E4C236000BF00BF064B5B68C3F310
:1003700003130C4CE15C094B1B68CB40074C23601A
:1003800010BD000000100240002002400000FFF8F5
:10039000FFFFF6FE08ED00E000127A0000000020EA
:1003A00000093D0004000020094880470948004733
:1003B000FEE7FEE7FEE7FEE7FEE7FEE7FEE7FEE715
:1003C000FEE7FEE704480549054A064B7047000072
:1003D000A7020008ED00000870070020700D002043
:1003E0007009002070090020DF48006840F001001B
:1003F000DD49086008464068DC490840DA49486041
:1004000008460068DA490840D7490860084600688D
:1004100020F4802008600846406820F4FE00486010
:100420004FF41F0088607047CF49096821F480317C
:10043000CD4A11601146096821F480211160B0F5A0
:10044000803F03D0B0F5802F0ED106E0C649096881
:1004500041F48031C44A116007E0C349096841F49E
:10046000A021C14A116000E000BF00BF704710B575
:1004700001460022002300204A11012A02D1BA4C71
:10048000236806E0022A02D1B74C236A01E0B64C89
:10049000636A01F01F02012494401C400CB101204A
:1004A00000E0002010BD38B5002000900024002599
:1004B00000BF3120FFF7DBFF05460098401C00908D
:1004C0000098B0F5A06F01D0002DF2D03120FFF7D9
:1004D000CEFF08B1012400E00024204638BD0146CB
:1004E0000020A14A106820F0F80040EAC100106026
:1004F0007047A04908607047024600209A4B586830
:1005000020F47C1042EA01031843974B586070476F
:1005100098490866704701460020934A506820F0C9
:1005200003000843506070478F48406800F00C009B
:100530007047014600208C4A506820F0F0000843C4
:100540005060704701460020874A506820F4E06000
:1005500008435060704701460020834A506820F4E9
:10056000605040EAC1005060704729B17E4A527A1B
:1005700002437D4B5A7204E07B4A527A82437A4BA3
:100580005A7270477B49D831086070470146002095
:10059000754A506820F4404008435060704700217D
:1005A000714A20321170704A82F82010012802D05E
:1005B00004280AD104E001216B4A2032117005E0C1
:1005C0000521694A2032117000E000BF00BF70476A
:1005D0006949086070476449096A0143624A1162C7
:1005E0007047654944390860704730B500210022E2
:1005F000002400235C4D6D6805F00C0121B1042935
:1006000005D0082923D105E05C4D056022E05B4D53
:1006100005601FE0544D6D6805F47012524D6D6811
:1006200005F48034022505EB92421CB9544D554324
:1006300005600BE04C4D6D6805F400351DB1504D63
:100640005543056002E04D4D5543056002E04B4DBA
:10065000056000BF00BF444D6D6805F0F001090959
:10066000484D6B5C0568DD4045603F4D6D6805F4A5
:10067000E061090A434D6B5C4568DD4085603A4D99
:100680006D6805F46051C90A3E4D6B5C4568DD40FC
:10069000C560354D6D6805F44041890B3A4D6B5C82
:1006A000C568B5FBF3F5056130BD29B12E4A526925
:1006B00002432D4B5A6104E02B4A526982432A4B74
:1006C0005A61704729B1284A92690243264B9A61C0
:1006D00004E0254A92698243234B9A61704729B10D
:1006E000214AD2690243204BDA6104E01E4AD269F2
:1006F00082431D4BDA61704729B11B4AD26802431D
:10070000194BDA6004E0184AD2688243164BDA606B
:10071000704729B1144A12690243134B1A6104E06D
:10072000114A12698243104B1A61704712494039CD
:10073000086070470F49C86470470B49C87170471B
:100740000948406A40F08070074948627047014696
:100750000020054A92680A400AB1012000E000200A
:100760007047014988727047001002400000FFF88E
:10077000FFFFF6FE000042428004424200127A006F
:1007800000093D00140000202400002010B504469C
:10079000FB48844209D101218803FFF7ADFF002106
:1007A0004FF48040FFF7A8FF32E0F648844209D1B9
:1007B00001214804FFF7ADFF00214FF40030FFF79F
:1007C000A8FF25E0F048844209D101218804FFF701
:1007D000A0FF00214FF48020FFF79BFF18E0EB48BB
:1007E000844209D10121C804FFF793FF00214FF48F
:1007F0000020FFF78EFF0BE0E548844208D101217D
:100800000805FFF786FF00214FF48010FFF781FFF6
:1008100010BD2DE9F04786B005460E460024A246DD
:1008200000BFA1460027B08900B100BF2F462C8A27
:100830004CF6FF700440F08804432C82AC894EF6DD
:10084000F3100440B0883189084371890843044398
:10085000AC81AC8A4FF6FF400440B0890443AC82BF
:1008600001A8FFF7C2FEC648874202D1DDF810A0FA
:1008700001E0DDF80CA0A88900F4004040B10AEBCB
:10088000CA0000EB0A1031684900B0FBF1F807E03C
:100890000AEBCA0000EB0A1031688900B0FBF1F8DE
:1008A0006420B8FBF0F004012009642101FB1089E9
:1008B000A88900F4004040B1322000EBC900B0FB31
:1008C000F1F000F00700044308E0322000EB0910CB
:1008D0006421B0FBF1F000F00F0004432C8106B05E
:1008E000BDE8F0874FF41651016000218180C1807E
:1008F00001810C21418100218181704710B50246A0
:100900000020108A4FF2FF0318400B884C882343C5
:100910008C882343CC8823431843108210BD0021C8
:10092000018041808180C180704721B1828942F479
:100930000052828104E082894DF6FF731A40828161
:100940007047F0B50346002400260025002040F63D
:100950006A17B94200D100BF1846C1F3421401F032
:100960001F06012707FA06F5012C01D10C3004E01F
:10097000022C01D1103000E014301AB107682F4367
:10098000076002E00768AF430760F0BD1AB1838AD1
:100990000B43838202E0838A8B4383827047028AFF
:1009A0004FF6F0731A400282028A0A4302827047AD
:1009B00082894FF2FF731A40828182890A438281C1
:1009C000704721B1828942F00202828104E082896B
:1009D0004FF6FD731A4082817047028A4FF6DF732B
:1009E0001A400282028A0A430282704721B1028AB7
:1009F00042F48042028204E0028A4BF6FF731A40FE
:100A000002827047C1F308028280704701468888DD
:100A1000C0F308007047818941F00101818170476E
:100A2000028BD2B20283028B42EA01220283704718
:100A3000028B02F47F420283028B0A4302837047D7
:100A400021B1828A42F02002828204E0828A4FF63B
:100A5000DF731A408282704721B1828A42F010020D
:100A6000828204E0828A4FF6EF731A4082827047D6
:100A700021B1828A42F00802828204E0828A4FF623
:100A8000F7731A408282704721B1828942F4004292
:100A9000828103E08289C2F30E028281704721B114
:100AA000828A42F40062828204E0828A4FF2FF73FB
:100AB0001A4082827047828A4FF6FB731A40828204
:100AC000828A0A438282704721B1828A42F00202FE
:100AD000828204E0828A4FF6FD731A408282704758
:100AE00002460020B1F5007F00D100BF13880B4003
:100AF0000BB1012000E00020704701F40072B2F554
:100B0000007F00D100BFCA430280704770B5024623
:100B1000002400230025002040F66A16B14200D1CF
:100B200000BFC1F3421501F01F03012606FA03F3CB
:100B3000012D02D19689334006E0022D02D1168A9A
:100B4000334001E0968A33400C12012606FA04F481
:100B50001688344013B10CB1012000E0002070BDB4
:100B600010B50022002340F66A14A14200D100BF54
:100B70000A1201249440A3B2DC43048010BD00009B
:100B8000003801400044004000480040004C004054
:100B90000050004010B50446CC48844208D10121E1
:100BA0000420FFF7A9FD00210420FFF7A5FD46E082
:100BB000C748844208D101210820FFF79DFD00218C
:100BC0000820FFF799FD3AE0C248844208D101218C
:100BD0001020FFF791FD00211020FFF78DFD2EE082
:100BE000BD48844208D101212020FFF785FD002166
:100BF0002020FFF781FD22E0B848844208D101217E
:100C00004020FFF779FD00214020FFF775FD16E039
:100C1000B348844208D101218020FFF76DFD0021F7
:100C20008020FFF769FD0AE0AE48844207D1012128
:100C30008015FFF761FD0021A015FFF75DFD10BDD8
:100C400010B501210846FFF757FD00210120FFF7ED
:100C500053FD10BD2DE9F04102460025002600207D
:100C600000230024002791F803C00CF00F0591F831
:100C700003C00CF0100CBCF1000F03D091F802C0BF
:100C80004CEA050591F800C0BCF1000F31D01468A2
:100C900000202BE04FF0010C0CFA00F3B1F800C07B
:100CA0000CEA03069E4220D183004FF00F0C0CFA91
:100CB00003F7BC4305FA03FC4CEA040491F803C0B3
:100CC000BCF1280F06D14FF0010C0CFA00FCC2F861
:100CD00014C00AE091F803C0BCF1480F05D14FF0F1
:100CE000010C0CFA00FCC2F810C0401C0828D1D33B
:100CF0001460B1F800C0BCF1FF0F34DD546800206F
:100D00002EE000F1080C4FF0010808FA0CF3B1F8DE
:100D100000C00CEA03069E4221D183004FF00F0C65
:100D20000CFA03F7BC4305FA03FC4CEA040491F8FF
:100D300003C0BCF1280F05D100F1080C08FA0CF82B
:100D4000C2F8148091F803C0BCF1480F07D100F13C
:100D5000080C4FF0010808FA0CF8C2F81080401C8B
:100D60000828CED35460BDE8F0814FF6FF710180B2
:100D7000022181700421C1707047024600209368EF
:100D80000B400BB1012000E000207047014688684D
:100D900080B2704702460020D3680B400BB101209F
:100DA00000E0002070470146C86880B270470161CA
:100DB0007047416170470AB1016100E041617047CD
:100DC000C16070474FF480320A4382618161826161
:100DD00082698269704702460020434B18684FF6CB
:100DE0008073184040EA021008433F4B1860704778
:100DF0003E49C8617047F0B50A460023002400212F
:100E0000002500F00046B6F1004F02D1364EF169E0
:100E100001E0354E7168C0F3034583B200F440161B
:100E2000B6F5401F08D121F070612F4E766826F08C
:100E300070662D4F7E6012E000F48016B6F5801FBC
:100E400006D1032606FA05F4A14341F0706106E0DD
:100E5000460D360103FA06F6B14341F0706122B146
:100E6000460D360103FA06F6314300F00046B6F1AE
:100E7000004F02D11C4EF16101E01B4E7160F0BDCC
:100E800030B500228B071C0F0F2303FA04F2164B18
:100E900008338C1053F824309343134C08348D10CE
:100EA00044F8253023468C1053F824308C07240F47
:100EB00000FA04F423430C4C08348D1044F8253018
:100EC00030BD0A49DC31086070470000000801406D
:100ED000000C0140001001400014014000180140C6
:100EE000001C0140002001400000014000002042A1
:100EF00031490143314A1160704770B50021002328
:100F00000F22C47804B32D4C246804F4E064C4F5C3
:100F1000E064210AC1F10403CA40447804FA03F1F1
:100F20008478144021430901254C0678A1550478A2
:100F300004F01F050124AC4005786D11AD0005F1EA
:100F4000E025C5F8004109E0047804F01F050124FC
:100F5000AC401C4D0678761145F8264070BD1A4A03
:100F60000A400243154B1B1F1A60704739B1134AE0
:100F7000121D12680243114B1B1D1A6006E00F4A36
:100F8000121D126882430D4B1B1D1A607047042806
:100F900008D14FF0E021096941F004014FF0E0224F
:100FA000116107E04FF0E021096921F004014FF0E1
:100FB000E0221161704700000000FA050CED00E02E
:100FC00000E400E080E100E080FFFF1F0146002018
:100FD000FE4A106800F03800084310607047FB4973
:100FE000096821F00801F94A1160114609680143B6
:100FF00011607047F549096821F01001F34A11604A
:1010000011460968014311607047F148EF49486093
:10101000F04848607047EE48EC494860ED48486049
:101020007047EA48006940F08000E849086170476D
:10103000E648006940F08000E449086170470420F8
:10104000E249C96801F0010109B101200EE0DF4960
:10105000C96801F0040109B1022007E0DB49C96851
:1010600001F0100109B1032000E00420704700B531
:1010700002460423FFF7E3FF034603E0FFF7DFFF29
:101080000346521E012B01D1002AF7D102B90523D4
:10109000184600BD30B5044604254FF43020FFF754
:1010A000E6FF0546042D17D1C848006940F002004C
:1010B000C649086108464461006940F04000086183
:1010C0004FF43020FFF7D3FF0546C048006941F6D2
:1010D000FD710840BD490861284630BD10B50424A3
:1010E0004FF43020FFF7C3FF0446042C16D1B74855
:1010F000006940F00400B54908610846006940F005
:10110000400008614FF43020FFF7B1FF0446AF48BC
:10111000006941F6FB710840AC490861204610BDEA
:1011200000B502460423FFF78AFF034603E0FFF7FA
:1011300086FF0346521E012B01D1002AF7D102B9C6
:101140000523184600BD10B504244FF43020FFF7E6
:10115000E7FF0446042C16D19C48006940F00400C7
:101160009A4908610846006940F0400008614FF460
:101170003020FFF7D5FF04469448006941F6FB7123
:10118000084092490861204610BD00208F49C96976
:1011900001F0020109B1012000E00020704730B5E4
:1011A000A5250424FFF7F1FF00B100254FF43020FE
:1011B000FFF75DFF0446042C3AD1854883498860D7
:1011C000844888600846006940F0200008610846AD
:1011D000006940F0400008614FF43020FFF747FFFE
:1011E0000446042C1BD17948006941F6DF710840A0
:1011F000764908610846006940F0100008617648A9
:101200000580E002FFF733FF0446052C10D06F483D
:10121000006941F6EF7108406C49086108E0052C4F
:1012200006D06A48006941F6EF71084067490861D5
:10123000204630BD78B506460C46042500200090B7
:10124000E802FFF714FF0546042D24D15F4800692A
:1012500040F001005D4908613480E802FFF707FFB4
:101260000546042D10D1B01C0090200C0099088078
:10127000E802FFF7FCFE05465448006941F6FE719E
:1012800008405249086106E05048006941F6FE7185
:1012900008404E490861284678BD70B504460D46A1
:1012A0000426F002FFF7E3FE0646042E11D147485C
:1012B000006940F00100454908612580F002FFF710
:1012C000D6FE06464148006941F6FE7108403F4996
:1012D0000861304670BD70B505460E460424E00234
:1012E000FFF7C5FE0446042C17D1394837498860FA
:1012F000384888600846006940F0100008612E8078
:10130000E002FFF7B4FE0446052C06D02F48006922
:1013100041F6EF7108402D490861204670BD2DE966
:10132000F04304464FF6FF763746B046B1460425F3
:10133000E443E6B2C4F30727C4F307484FEA14694D
:10134000E802FFF794FE0546042D49D120481F49C5
:101350008860204888600846006940F010000861F5
:10136000FF2E06D01C4808300680E802FFF77FFEFB
:101370000546042D08D1FF2F06D017480A300780F4
:10138000E802FFF774FE0546042D0AD1B8F1FF0FFD
:1013900007D011480C30A0F80080E802FFF767FE84
:1013A0000546042D0AD1B9F1FF0F07D00A480E30C7
:1013B000A0F80090E802FFF75AFE0546052D0FD071
:1013C0000248006941F6EF71084007E00020024042
:1013D00023016745AB89EFCD00F8FF1F664908611F
:1013E0002846BDE8F08330B5054604244FF430208C
:1013F000FFF73DFE0446042C41D160485E498860F9
:101400005F4888600846006940F02000086108468F
:10141000006940F0400008614FF43020FFF727FEDC
:101420000446042C22D15448006941F6DF7108407B
:10143000514908610846006940F0100008611DB17B
:1014400000205049088002E0A5204E4908804FF452
:101450003020FFF70CFE0446052C10D046480069EA
:1014600041F6EF7108404449086108E0052C06D0B8
:101470004148006941F6DF7108403F490861204654
:1014800030BDF0B505460E46174604243B483A49A0
:1014900088603B488860E002FFF7E9FD0446042CC1
:1014A00019D13548006940F010003349086147F010
:1014B000F800304328433349891C0880E002FFF7D5
:1014C000D6FD0446052C06D02B48006941F6EF7185
:1014D0000840294908612046F0BD2748C0698008B6
:1014E00070472548006A704700202349096801F0C9
:1014F000200109B1012000E00020704729B11E4AF7
:10150000126902431C4B1A6104E01B4A12698243B0
:10151000194B1A61704701460020012908D1164A6B
:10152000D26902F001020AB1012008E0002006E0C1
:10153000114AD2680A400AB1012000E00020704739
:101540000D49C860704704200B49C96801F00101CA
:1015500009B101200EE00849C96801F0040109B190
:10156000022007E00449C96801F0100109B1032015
:1015700000E004207047000000200240230167457E
:10158000AB89EFCD00F8FF1F10B50446FE4884423A
:1015900008D10121C014FFF7AFF80021E014FFF7D4
:1015A000ABF8C4E0B4F1804F08D101210846FFF741
:1015B000B0F800210120FFF7ACF8B8E0F34884420E
:1015C00008D101210220FFF7A4F800210220FFF733
:1015D000A0F8ACE0EE48844208D101210420FFF7D6
:1015E00098F800210420FFF794F8A0E0E94884422D
:1015F00008D101210820FFF78CF800210820FFF70F
:1016000088F894E0E448844208D101211020FFF7D3
:1016100080F800211020FFF77CF888E0DF48844242
:1016200008D101212020FFF774F800212020FFF7C6
:1016300070F87CE0DA48844208D101214014FFF7B9
:101640005BF800216014FFF757F870E0D54884423A
:1016500009D10121C804FFF74FF800214FF4002001
:10166000FFF74AF863E0D048844209D10121080518
:10167000FFF742F800214FF48010FFF73DF856E0E5
:10168000CA48844209D101214805FFF735F80021F5
:101690004FF40010FFF730F849E0C548844208D104
:1016A00001214020FFF735F800214020FFF731F8F5
:1016B0003DE0C048844208D101218020FFF729F88D
:1016C00000218020FFF725F831E0BB48844208D193
:1016D00001218015FFF71DF80021A015FFF719F86B
:1016E00025E0B648844209D101210804FFF704F837
:1016F00000214FF48030FEF7FFFF18E0B04884422D
:1017000009D101214804FEF7F7FF00214FF4003012
:10171000FEF7F2FF0BE0AB48844208D101218804B8
:10172000FEF7EAFF00214FF48020FEF7E5FF10BD31
:1017300000220288944B98420ED0994B98420BD0CD
:10174000B0F1804F08D0914B984205D0904B984211
:1017500002D0904B984204D14FF68F731A404B88B9
:101760001A438D4B984207D08C4B984204D04FF6C9
:10177000FF431A40CB881A4302808B8883850B88ED
:101780000385814B98420BD0854B984208D08B4BF8
:10179000984205D08A4B984202D08A4B984201D198
:1017A0000B7A038601238382704770B500240022E0
:1017B0000023058C4FF6FE7635400584028C838825
:1017C000048B4FF68F752C40B51E2C400D882C4392
:1017D000751E2A400D892A434D882A436A4DA84226
:1017E0000BD06F4DA84208D0744DA84205D0744D5F
:1017F000A84202D0734DA84213D14FF6F7752A4084
:101800004D892A434FF6FB752A408D882A434FF6AF
:10181000FF652B404FF6FF552B408D892B43CD891B
:101820002B4383800483CD888586028470BD70B588
:10183000002400220023058C4FF6EF763540058406
:10184000028C8388048B48F6FF752C404FF6FF45C9
:101850002C400D884FF6FF7606EA05252C434FF6FF
:10186000DF752A400D8906EA05152A434D8806EAE8
:1018700005152A43444DA84202D0494DA8421DD126
:101880004FF67F752A404D894FF6FF7606EA05151B
:101890002A434FF6BF752A408D8806EA05152A436C
:1018A0004FF6FF352B404FF2FF752B408D8906EA2E
:1018B00085052B43CD8906EA85052B438380048368
:1018C000CD880587028470BD70B5002400220023F6
:1018D000058C4FF6FF6635400584028C8388848B27
:1018E0004FF68F752C404FF6FC752C400D882C431D
:1018F0004FF6FF552A400D894FF6FF7606EA05257B
:101900002A434D8806EA05252A431F4DA84202D0E6
:10191000234DA8421DD14FF2FF752A404D894FF645
:10192000FF7606EA05252A434FF6FF352A408D88C3
:1019300006EA05252A434EF6FF752B404DF6FF7546
:101940002B408D8906EA05152B43CD8906EA05153E
:101950002B4383808483CD888587028470BD70B5D6
:10196000002200230024058C4EF6FF7635400584C6
:10197000038C8488828B48F6FF752A404FF6FF451A
:101980002A400D8820E00000002C014000040040A7
:1019900000080040000C004000100040001400400F
:1019A00000340140004C014000500140005401400F
:1019B00000180040001C0040002000400040014092
:1019C00000440140004801404FF6FF7606EA052535
:1019D0002A434DF6FF752B400D8906EA05352B434A
:1019E0004D8806EA05352B43FA4DA84202D0FA4D40
:1019F000A84208D14BF6FF752C408D894FF6FF7633
:101A000006EA85152C4384808283CD88A0F8405057
:101A1000038470BD828B4FF2FF331A408283828B26
:101A20004FF6FF7303EA01231A4382837047F0B530
:101A30000C461546002200210026078C4EF6FF7C3E
:101A400007EA0C070784828B018C4FF6FF7707EAC1
:101A5000043640F6FF473A404FF6FF7707EA05277E
:101A60003A434FF6FF7707EA03373A43D94FB84274
:101A70000ED0D94FB8420BD0B0F1804F08D0D74F1D
:101A8000B84205D0D64FB84202D0D64FB84206D1A0
:101A90004DF6FF77394046F48057394305E047F665
:101AA000FF57394044F48057394382830184F0BDA5
:101AB000828B4FF6F3731A408283828B0A438283B0
:101AC0007047F0B50C461546002200210026078C11
:101AD0004FF6FF6C07EA0C070784828B018C4FF6E8
:101AE000FF7707EA04264FF60C773A404FF6FF7768
:101AF00007EA03172F433A43B64FB8420ED0B64F0A
:101B0000B8420BD0B0F1804F08D0B44FB84205D0E6
:101B1000B34FB84202D0B34FB84206D14FF6FF5789
:101B2000394046F48077394305E04FF2FF5739409A
:101B300044F48077394382830184F0BD028B4FF2F5
:101B4000FF331A400283028B4FF6FF7303EA01232F
:101B50001A4302837047F0B50C4615460022002157
:101B60000026078C4FF6EF7C07EA0C070784028BF0
:101B7000018C4FF6FF7707EA041640F6FF473A401C
:101B80004FF6FF7707EA03373A434FF6FF7707EA46
:101B900005273A438F4FB8420ED08F4FB8420BD033
:101BA000B0F1804F08D08D4FB84205D08C4FB8426D
:101BB00002D08C4FB84206D14FF6DF77394046F05D
:101BC0001007394305E04FF65F77394044F01007BE
:101BD000394302830184F0BD028B4FF6F3731A4040
:101BE0000283028B0A4302837047F0B50C46154608
:101BF00000220021068C4FF6FE773E400684028BC1
:101C0000018C4FF60C7632407E1C06EA03162E43FA
:101C10003243704EB0420ED06F4EB0420BD0B0F196
:101C2000804F08D06D4EB04205D06D4EB04202D00C
:101C30006C4EB04206D14FF6FD76314044F00106BD
:101C4000314305E04FF6F576314044F0010631436B
:101C500002830184F0BD70B505460C465D4885429F
:101C60000ED05D4885420BD0B5F1804F08D05B485F
:101C7000854205D05A48854202D05A48854200D153
:101C800000E000BF208850B92389A28861882846D7
:101C9000FFF7ABFFE1882846FFF79EFF25E020888D
:101CA00004280AD12389A28861882846FFF753FFB8
:101CB000E1882846FFF742FF17E0208808280AD16C
:101CC0002389A28861882846FFF7FBFEE188284621
:101CD000FFF7EEFE09E02389A28861882846FFF716
:101CE000A6FEE1882846FFF795FE70BD2DE9F0417C
:101CF00005460C4600260127608808B9022600E048
:101D00000026A088012801D1022700E001272088B1
:101D1000A0B92389A28861882846FFF766FFE18879
:101D20002846FFF759FF23893A4631462846FFF7F0
:101D300012FFE1882846FFF701FF13E02389A288FC
:101D400061882846FFF707FFE1882846FFF7F6FE7F
:101D500023893A4631462846FFF747FFE18828465F
:101D6000FFF73AFFBDE8F0810A884B881A438B8859
:101D70001A43CB881A430B891A434B891A438B8920
:101D80001A43A0F8442070474FF6FF71818000216C
:101D90000180C18041800172704700210180418033
:101DA0008180C180018141818181C1817047002191
:101DB00001804180012181800021C1800181704723
:101DC0000021018041808180C18001814181818128
:101DD00070470000002C0140003401400004004026
:101DE00000080040000C004021B1028842F00102CE
:101DF000028004E002884FF6FE731A4002807047AA
:101E000031B1B0F8442042F40042A0F8442005E08B
:101E1000B0F84420C2F30E02A0F8442070471AB173
:101E200083890B43838102E083898B4383817047DD
:101E30008182704741EA0203A0F8483070471AB126
:101E400083890B43838102E083898B4383817047BD
:101E500001894FF6F8721140018170470A4600214E
:101E600001894FF68F73194011430181704730B5D6
:101E700004460D4629462046FFF7F0FF208940F032
:101E80000700208130BD2DE9F04104460D4616467D
:101E90001F46602D06D13B46012231462046FFF702
:101EA0005AFE05E03B46012231462046FFF79DFEE3
:101EB00029462046FFF7D2FF208940F00700208105
:101EC000BDE8F08130B50C4600210189C9B24FF65A
:101ED000FF7505EA0325154325432943018130BDDC
:101EE0002DE9F04105460E46174698460024434624
:101EF0003A4631462846FFF7E5FF2C894FF6F87041
:101F0000044044F007044FF68F70044044F070041E
:101F10002C81BDE8F081F0B504460D4616461F46FB
:101F20003B46324629462046FFF7CCFF208940F445
:101F300080402081F0BD0185828270470A460021E1
:101F400001884FF68F731940114301807047F0B537
:101F50000C4615461E460021002200230189028BF3
:101F6000038C4FF6F877394021434FF6FC473A404F
:101F700040F201173A434FF6DD773B404FF6FF77CB
:101F800007EA06172F433B43018102830384F0BD18
:101F90000A460021018B4FF68F73194011430183CC
:101FA00070470A460021018B48F6FF7319404FF62F
:101FB000FF7303EA02231943018370470A46002195
:101FC000818B4FF68F7319401143818370470A4606
:101FD0000021818B48F6FF7319404FF6FF7303EA27
:101FE000022319438183704721B1028842F08002A5
:101FF000028004E002884FF67F731A400280704727
:1020000021B1828842F00402828004E082884FF687
:10201000FB731A408280704721B1828842F0080227
:10202000828004E082884FF6F7731A4082807047FE
:1020300021B1828842F00102828004E082884FF65A
:10204000FE731A40828070470A460021018B4FF6CA
:10205000F77319401143018370470A460021018B31
:102060004FF2FF7319404FF6FF7303EA022319433F
:10207000018370470A460021818B4FF6F7731940A0
:102080001143818370470A460021818B4FF2FF7311
:1020900019404FF6FF7303EA022319438183704707
:1020A0000A460021018B4FF6FB731940114301834F
:1020B00070470A460021018B4FF6FF3319404FF657
:1020C000FF7303EA02231943018370470A46002184
:1020D000818B4FF6FB7319401143818370470A4689
:1020E0000021818B4FF6FF3319404FF6FF7303EA4F
:1020F00002231943818370470A460021018B4FF662
:102100007F7319401143018370470A460021018BF8
:10211000C1F30E014FF6FF7303EA02231943018353
:1021200070470A460021818B4FF67F731940114397
:10213000818370470A460021818BC1F30E014FF65F
:10214000FF7303EA02231943818370470A46002183
:10215000018C4FF6FD7319401143018470470A4604
:102160000021018C4FF6F773194011430184704729
:102170000A460021018C4FF6DF7319404FF6FF73BA
:1021800003EA02131943018470470A460021018CB7
:102190004FF67F7319404FF6FF7303EA021319439A
:1021A000018470470A460021018C4FF6FF53194005
:1021B0004FF6FF7303EA02231943018470470A466E
:1021C0000021018C4FF2FF7319404FF6FF7303EAB1
:1021D00002231943018470470A460021018C4DF601
:1021E000FF7319404FF6FF7303EA0233194301846A
:1021F000704730B5002301248C40A3B2048C9C436B
:102200000484048C02FA01F5ADB22C43048430BD81
:1022100030B5002304248C40A3B2048C9C43048476
:10222000048C02FA01F5ADB22C43048430BD70B5C4
:102230000346002000241846183001258D40ACB21A
:102240001D8CA5431D8409B1082909D100EB61004B
:10225000056825F0700505600568154305600EE00A
:102260000D1FC5F34E052844056825F4E0450560BB
:1022700005684FF6FF7606EA02263543056070BD15
:1022800021B1028842F00202028004E002884FF687
:10229000FD731A400280704721B1028842F00402A7
:1022A000028004E002884FF6FB731A4002807047F8
:1022B00021B1828842F08002828004E082884FF659
:1022C0007F731A408280704702884FF6F7731A4076
:1022D000028002880A430280704782884FF68F731B
:1022E0001A40828082880A438280704702894FF6B2
:1022F000F8731A40028102890A43028170470289F9
:102300004FF67F731A40028102890A4302817047A7
:102310008184704781857047818670470187704747
:1023200081877047A0F84010704702884FF6FF433E
:102330001A40028002880A43028070470146888E54
:1023400070470146088F70470146888F70470146E5
:10235000B1F8400070470146888C70470146088DEF
:10236000704702460020138A0B400BB1012000E0A9
:1023700000207047CA430282704730B502460020F1
:1023800000230024158A05EA0103958905EA010462
:1023900013B10CB1012000E0002030BDCA4302821D
:1023A0007047000010B50446FA48844208D1012164
:1023B0004015FEF7A1F900216015FEF79DF917E021
:1023C000F548844208D101210015FEF795F9002156
:1023D0002015FEF791F90BE0F048844208D1012165
:1023E000C803FEF789F900214FF40040FEF784F995
:1023F00010BD30B50246002000235068E84C204054
:102400000D790C6844EA0524204350609068E54C3F
:102410002040D1E902542C434D7944EA450420433D
:102420009060D06A20F470000C7C641EE4B22343F8
:1024300040EA0350D06230BD00210160017141715A
:102440008160C16001210174704721B1826842F04E
:102450000102826003E0826822F00102826070471C
:1024600021B1826842F48072826003E0826822F4C3
:1024700080728260704710B50023CBB21AB14468F5
:102480001C43446002E044689C43446010BD816882
:1024900041F0080181607047014600208A6802F01F
:1024A00008020AB1012000E000207047816841F075
:1024B000040181607047014600208A6802F004022E
:1024C0000AB1012000E00020704721B1826842F487
:1024D000A002826003E0826822F4A002826070475A
:1024E000014600208A6802F480020AB1012000E05F
:1024F0000020704710B50A4600210023416821F4EE
:102500006041531E41EA4331416010BD21B1426830
:1025100042F40062426003E0426822F400624260DA
:102520007047F0B504460D4600200021092D11DD4D
:10253000E068A5F10A0606EB4607072606FA07F14A
:102540008843A5F10A0606EB460603FA06F108439E
:10255000E0600CE0206905EB4507072606FA07F165
:10256000884305EB450603FA06F108432061072A74
:102570000FDA606B561E06EB86071F2606FA07F178
:102580008843561E06EB860605FA06F1084360638B
:1025900022E00D2A0FDA206BD61F06EB86071F26D6
:1025A00006FA07F18843D61F06EB860605FA06F100
:1025B0000843206310E0E06AA2F10D0606EB8607EF
:1025C0001F2606FA07F18843A2F10D0606EB8606E0
:1025D00005FA06F10843E062F0BD21B1826842F4D9
:1025E0008012826003E0826822F480128260704769
:1025F0000146C86C80B2704766484C30006870472E
:1026000021B1426842F48062426003E0426822F4F1
:1026100080624260704721B1426842F48052426059
:1026200003E0426822F48052426070470A4600216B
:10263000816821F4E04111438160704721B18268D3
:1026400042F40042826003E0826822F40042826029
:10265000704721B1826842F40212826003E082680E
:1026600022F4021282607047014600208A6802F458
:1026700000120AB1012000E000207047F0B50446C6
:102680001546002000220026092911DDE068A1F18D
:102690000A0707EB470C072707FA0CF29043A1F152
:1026A0000A0707EB470703FA07F21043E0600CE064
:1026B000206901EB410C072707FA0CF2904301EB6C
:1026C000410703FA07F210432061A06BC0F30156E3
:1026D000EF1C06F1010CA7EB0C0707EB870C1F277B
:1026E00007FA0CF29043EF1C06F1010CA7EB0C0764
:1026F00007EB870701FA07F21043A063F0BD10B59E
:102700000A4600210023816B21F44011531E41EA47
:102710000351816310BD08B5002300930090009B16
:102720000B440093009B1A6008BD08B502460020C8
:102730000090009201F12800009B1844009000983E
:10274000006880B208BD0A4600214168164B194056
:102750001143416070474162826270470A4600211E
:10276000416821F01F0111434160704740B10949A0
:102770000831096841F40001064A0832116007E097
:1027800004490831096821F40001024A0832116045
:10279000704700000024014000280140003C014037
:1027A000FFFEF0FFFDF7F1FFFFFD3FFF02460020B7
:1027B00013680B400BB1012000E000207047CA43B2
:1027C0000260704770B502460020002300240B12FF
:1027D0005568CEB205EA060415681D4015B10CB166
:1027E000012000E0002070BD00220A12D3430360E4
:1027F0007047000001684FF6FE7211400160002131
:10280000016041608160C1608D49884208D18C4976
:102810000839496841F00F01894A083A51608AE055
:1028200087491431884208D185490839496841F0FF
:10283000F001834A083A51607DE08149283188429D
:1028400008D17F490839496841F470617C4A083AE7
:10285000516070E07A493C31884208D178490839A2
:10286000496841F47041764A083A516063E074491E
:102870005031884208D172490839496841F47021C1
:102880006F4A083A516056E06D496431884208D178
:102890006B490839496841F47001694A083A516046
:1028A00049E067497831884208D165490839496863
:1028B00041F07061624A083A51603CE061498842E7
:1028C00006D1011F096841F00F01021F116032E0BB
:1028D0005C491431884208D15A49091F096841F0FE
:1028E000F001584A121F116025E0564928318842EC
:1028F00008D15449091F096841F47061514A121FF7
:10290000116018E04F493C31884208D14D49091FF8
:10291000096841F470414B4A121F11600BE04949AC
:102920005031884207D14749091F096841F4702195
:10293000444A121F1160704710B50022026847F622
:10294000F0739A430C6A8B6823430C6923434C69E8
:1029500023438C692343CC6923434C6A23438C6A09
:1029600023431A430260CB6843600B6883604B6863
:10297000C36010BD0021016041608160C1600161E0
:1029800041618161C161016241628162704721B12F
:10299000026842F00102026004E002684FF6FE7332
:1029A0001A40026070471AB103680B43036002E0EB
:1029B00003688B4303607047416070470146486875
:1029C00080B2704701460020002201F080531BB105
:1029D0001C4B083B1A6802E0194B083B1A6802EAD4
:1029E00001030BB1012000E00020704700F080518E
:1029F00019B11449091F086002E0114908394860FB
:102A0000704701460020002201F080531BB10D4B9E
:102A1000083B1A6802E00A4B083B1A6802EA010305
:102A20000BB1012000E00020704700F0805119B187
:102A30000449091F086002E00149083948607047ED
:102A400008000240080402400E49086070470D4922
:102A5000486070470B49886070474AF6AA200949C8
:102A6000086070474CF6CC40064908607047014644
:102A70000020044AD2680A400AB1012000E0002088
:102A8000704700000030004010B501210807FDF735
:102A900040FE00214FF08050FDF73BFE10BD2A495B
:102AA0000862704728490861704701460020274A9C
:102AB000106820F0E0000843106070472249A03100
:102AC0000860704710B502460020204B186820F0BF
:102AD0000300104318601E4B1B6843F004031C4C9A
:102AE0002360012901D130BF00E020BF184B1B68D3
:102AF00023F00403164C236010BD1448006840F016
:102B00000400124908600846006840F002000860AE
:102B10000F48006840F004000D49086000BF00BF86
:102B200030BF704701460020084A52680A400AB187
:102B3000012000E0002070470449096841EA800153
:102B4000024A11607047000000000E420070004011
:102B500010ED00E0704700BFFEE700BFFEE700BFDA
:102B6000FEE700BFFEE77047704770477047704749
:102B700070470000FE488078FE490870FC480079E4
:102B80004870FB4880798870F948007AC870F84826
:102B9000807A0871F648007B4871F548807B88711F
:102BA000F348007CC8717047012825D1F2490978A3
:102BB000332910D1EE49097EEE4A1170EC4991F8A3
:102BC00022105170EA4991F82E109170E84991F85D
:102BD0004E10D17037E0E649097EE64A1170E449AB
:102BE00091F822105170E24991F82E109170E0494D
:102BF00091F82C10D17026E0022811D1DC4991F80F
:102C00002A10DC4A1170DA4991F836105170D8490F
:102C100091F824109170D64991F83610D17012E0D5
:102C2000032810D1D24991F82A10D24A1170D04904
:102C300091F828105170CE4991F838109170CC4914
:102C400091F82C10D170CA4991F82C10C94A117111
:102C5000C74991F82C105171C54991F82C10917108
:102C6000C34991F82C10D1717047C14890F82C00DD
:102C7000C0490870BE4890F82C004870BC4890F8D5
:102C80002C008870BA4890F82C00C870B84890F8AA
:102C90002C000871B64890F82C004871B44890F8A0
:102CA0002C008871B24890F82C00C871704701461A
:102CB000002004E00A22B1FBF2F1421CD0B200294C
:102CC000F8D1704770B504460B461846FFF7EFFF82
:102CD00005462046FFF7EBFF06460A2093FBF0F17E
:102CE00000FB1130A24911F81000A2490870022D12
:102CF0000DDB0A2093FBF0F00A2190FBF1F201FBBF
:102D000012009B4911F810009A49487004E0984855
:102D100090F82C0097494870032D0DDB642093FB3D
:102D2000F0F00A2190FBF1F201FB1200904911F83A
:102D300010009049887004E08D4890F82C008D496F
:102D40008870042D0EDB4FF47A7093FBF0F00A21AB
:102D500090FBF1F201FB1200854911F81000854942
:102D6000C87004E0824890F82C008249C8700A209C
:102D700094FBF0F100FB11407D4911F810007D49F2
:102D80000871022E0DDB0A2094FBF0F00A2190FB63
:102D9000F1F201FB1200764911F8100075494871F3
:102DA00004E0734890F82C0072494871032E0DDB43
:102DB000642094FBF0F00A2190FBF1F201FB120079
:102DC0006B4911F810006B49887104E0684890F86D
:102DD0002C0068498871042E0EDB4FF47A7094FB46
:102DE000F0F00A2190FBF1F201FB1200604911F8AA
:102DF00010006049C87104E05D4890F82C005D49FE
:102E0000C87170BDF0B507460B4614462046FFF763
:102E10004EFF05461846FFF74AFF06460A2094FB78
:102E2000F0F100FB1140524911F8100051490870AF
:102E3000022D0DDB0A2094FBF0F00A2190FBF1F249
:102E400001FB12004A4911F810004A49487004E099
:102E5000474890F82C0047494870032D0DDB64204B
:102E600094FBF0F00A2190FBF1F201FB12004049C3
:102E700011F810003F49887004E03D4890F82C009C
:102E80003C498870042D0EDB4FF47A7094FBF0F00F
:102E90000A2190FBF1F201FB1200354911F81000F4
:102EA0003449C87004E0324890F82C003149C870A9
:102EB000002F4AD00A2093FBF0F100FB11302C497F
:102EC00011F810002B490871022E0DDB0A2093FB2C
:102ED000F0F00A2190FBF1F201FB1200244911F8F5
:102EE00010002449487104E0214890F82C00214941
:102EF0004871032E0DDB642093FBF0F00A2190FB58
:102F0000F1F201FB12001A4911F8100019498871F9
:102F100004E0174890F82C0016498871042E0EDB47
:102F20004FF47A7093FBF0F00A2190FBF1F201FB71
:102F300012000F4911F810000E49C87116E00C4834
:102F400090F82C000B49C87110E0094890F82C004B
:102F500008490871064890F836004871044890F80E
:102F600034008871024890F82C00C871F0BD000050
:102F700088860008A40100201C010020F0B5074647
:102F80000B4614462046FFF792FE05461846FFF70B
:102F90008EFE06460A2094FBF0F100FB1140FD492D
:102FA00011F81000FC490870022D0DDB0A2094FB7B
:102FB000F0F00A2190FBF1F201FB1200F54911F843
:102FC0001000F549487004E0F24890F82C00F249EE
:102FD0004870032D0DDB642094FBF0F00A2190FB78
:102FE000F1F201FB1200EB4911F81000EA49887078
:102FF00004E0E84890F82C00E7498870042D0EDBC7
:103000004FF47A7094FBF0F00A2190FBF1F201FB8F
:103010001200E04911F81000DF49C87004E0DD48F3
:1030200090F82C00DC49C870002F4AD00A2093FB8E
:10303000F0F100FB1130D74911F81000D6490871A2
:10304000022E0DDB0A2093FBF0F00A2190FBF1F237
:1030500001FB1200CF4911F81000CF49487104E07C
:10306000CC4890F82C00CC494871032E0DDB64202D
:1030700093FBF0F00A2190FBF1F201FB1200C5492D
:1030800011F81000C449887104E0C24890F82C007F
:10309000C1498871042E0EDB4FF47A7093FBF0F077
:1030A0000A2190FBF1F201FB1200BA4911F810005D
:1030B000B949C87116E0B74890F82C00B649C871F4
:1030C00010E0B44890F82C00B3490871B14890F86A
:1030D00022004871AF4890F82E008871AD4890F8F2
:1030E0002C00C871F0BDAB4991F82C10AA4A1170A0
:1030F000A84991F82C105170A64991F82C109170A4
:10310000A44991F82C10D17080B1A24991F82410F3
:103110001171A04991F8221051719E4991F8201027
:1031200091719C4991F82E10D1710FE0994991F855
:103130002410994A1171974991F8221051719549BB
:1031400091F8201091719349897ED171704710B523
:1031500003461846FFF7ABFD04460A2093FBF0F147
:1031600000FB11308B4911F810008B490870022CBC
:103170000DDB0A2093FBF0F00A2190FBF1F201FB3A
:103180001200844911F810008349487004E0814816
:1031900090F82C0080494870032C0DDB642093FBD1
:1031A000F0F00A2190FBF1F201FB1200794911F8CD
:1031B00010007949887004E0764890F82C00764930
:1031C0008870042C0EDB4FF47A7093FBF0F00A2128
:1031D00090FBF1F201FB12006E4911F810006E49EC
:1031E000C87004E06B4890F82C006B49C8706948BF
:1031F00090F82C0068490871664890F826004871DC
:10320000644890F8300088716248007EC87110BD33
:103210006049097E604A11715E4991F82A10517126
:103220005C49097F91715B49897ED17168B15949C7
:10323000097D11705749097F5170564991F838102E
:1032400091705449097DD1700FE0524991F82C10CA
:10325000514A11704F49897E51704E4991F82A1098
:1032600091704C4991F82810D170704710B5034601
:103270001846FFF71CFD04460A20B3FBF0F100FBE3
:103280001130444911F8100043490870022C0DDB3D
:103290000A20B3FBF0F00A21B0FBF1F201FB1200AF
:1032A0003C4911F810003C49487004E0394890F856
:1032B0002C0039494870032C0DDB6420B3FBF0F07F
:1032C0000A21B0FBF1F201FB1200324911F81000A3
:1032D0003149887004E02F4890F82C002E498870FE
:1032E000042C0EDB4FF47A70B3FBF0F00A21B0FB34
:1032F000F1F201FB1200274911F810002649C870AD
:1033000004E0244890F82C002349C870052C0EDBFB
:1033100042F21070B3FBF0F00A21B0FBF1F201FBB6
:1033200012001C4911F810001B49087104E01948EB
:1033300090F82C0018490871164890F82600164994
:103340004871144890F828008871124890F82C00B1
:10335000C87110BD10B503461846FFF7A8FC044617
:103360000A20B3FBF0F100FB11300A4911F81000FC
:1033700009490870022C11DB0A20B3FBF0F00A2186
:10338000B0FBF1F201FB1200024911F810000249F2
:10339000487008E088860008A4010020F94890F8E9
:1033A0002C00F9494870032C0DDB6420B3FBF0F0CE
:1033B0000A21B0FBF1F201FB1200F24911F81000F2
:1033C000F149887004E0EF4890F82C00EE498870CD
:1033D000042C0EDB4FF47A70B3FBF0F00A21B0FB43
:1033E000F1F201FB1200E74911F81000E649C8703C
:1033F00004E0E44890F82C00E349C870052C0EDB8B
:1034000042F21070B3FBF0F00A21B0FBF1F201FBC5
:103410001200DC4911F81000DB49087104E0D948BA
:1034200090F82C00D8490871D64890F82600D64963
:103430004871D44890F828008871D248807FC871BC
:1034400010BDD04890F84600CF490870CD4890F89C
:1034500046004870CB4890F846008870C94890F8FC
:103460004600C870C948007888B1C648807F087196
:10347000C448807F4871C34890F822008871C148D1
:1034800090F82A00C8710020C049087013E0BD48B8
:1034900090F82C00BC490871BA4890F82C0048718B
:1034A000B84890F82C008871B64890F82C00C87184
:1034B0000120B64908707047B24890F84600B249FA
:1034C0000870B04890F846004870AE4890F8460042
:1034D0008870AC4890F84600C870AD48007880B15C
:1034E000A848807E0871A748807F4871A548807FE2
:1034F0008871A44890F82200C8710020A44908707F
:1035000013E0A04890F82C009F4908719D4890F85E
:103510002C0048719B4890F82C008871994890F8CD
:103520002C00C87101209A490870704730B50346D5
:103530000D461846FFF7BBFB0446002D66D09548A4
:10354000007800284DD00A2093FBF0F100FB1130E9
:103550008C4911F810008C490870022C0DDB0A20F0
:1035600093FBF0F00A2190FBF1F201FB1200854978
:1035700011F810008449487004E0824890F82C004B
:1035800081494870032C0DDB642093FBF0F00A2185
:1035900090FBF1F201FB12007A4911F810007A4910
:1035A000887004E0774890F82C0077498870042CE4
:1035B0000EDB4FF47A7093FBF0F00A2190FBF1F2EE
:1035C00001FB12006F4911F810006F49C87004E048
:1035D0006C4890F82C006C49C87000206D49087048
:1035E0005EE0684890F82C0067490870654890F8DC
:1035F0002C004870634890F82C008870614890F85F
:103600002C00C87001206349087049E00A2093FB30
:10361000F0F100FB11305B4911F810005A490870B5
:10362000022C0DDB0A2093FBF0F00A2190FBF1F253
:1036300001FB1200534911F810005349487004E08F
:10364000504890F82C0050494870032C0DDB642042
:1036500093FBF0F00A2190FBF1F201FB12004949C3
:1036600011F810004849887004E0464890F82C0092
:1036700045498870042C0EDB4FF47A7093FBF0F010
:103680000A2190FBF1F201FB12003E4911F81000F3
:103690003D49C87004E03B4890F82C003A49C87096
:1036A0003848807E384908713648807F48713548EF
:1036B000807F8871334890F82200C87130BD31484E
:1036C00090F84600304908702E4890F8460048703F
:1036D0002C4890F8460088702A4890F84600C87038
:1036E0002D48007890B12748807E0871254890F8D1
:1036F00020004871234890F824008871214890F8F0
:103700002200C87100202449087013E01D4890F879
:103710002C001D4908711B4890F82C00487119486D
:1037200090F82C008871174890F82C00C87101207F
:1037300019490870704730B503460D461846FFF723
:10374000B6FA0446002D75D01448007800285BD0E6
:103750000A2093FBF0F100FB11300A4911F8100028
:1037600009490870022C1BDB0A2093FBF0F00A21A8
:1037700090FBF1F201FB1200024911F8100002491E
:10378000487012E088860008A4010020380000205C
:10379000390000203A0000203B0000203C000020BF
:1037A000FE4890F82C00FE494870032C0DDB642085
:1037B00093FBF0F00A2190FBF1F201FB1200F749B4
:1037C00011F81000F649887004E0F44890F82C00D5
:1037D000F3498870042C0EDB4FF47A7093FBF0F001
:1037E0000A2190FBF1F201FB1200EC4911F81000E4
:1037F000EB49C87004E0E94890F82C00E849C8702B
:103800000020E84908705FE0E44890F82C00E449A3
:103810000870E24890F82C004870E04890F82C00BE
:103820008870DE4890F82C00C8700120DD490870CF
:103830004AE0FFE70A2093FBF0F100FB1130D74983
:1038400011F81000D6490870022C0DDB0A2093FBFA
:10385000F0F00A2190FBF1F201FB1200CF4911F8C0
:103860001000CF49487004E0CC4890F82C00CC49B7
:103870004870032C0DDB642093FBF0F00A2190FBD1
:10388000F1F201FB1200C54911F81000C44988701B
:1038900004E0C24890F82C00C1498870042C0EDB6B
:1038A0004FF47A7093FBF0F00A2190FBF1F201FBE8
:1038B0001200BA4911F81000B949C87004E0B748BD
:1038C00090F82C00B649C870B448807EB44908719D
:1038D000B24890F820004871B04890F824008871F0
:1038E000AE4890F82200C87130BDAC4890F8460050
:1038F000AB490870A94890F846004870A74890F86E
:1039000046008870A54890F84600C870A648007820
:1039100098B1A24890F82A000871A04890F82200B7
:1039200048719E4890F8340088719C4890F82800AF
:10393000C87100209C49087013E0984890F82C004A
:1039400097490871954890F82C004871934890F871
:103950002C008871914890F82C00C8710120924980
:103960000870704730B503460D461846FFF79FF9BB
:103970000446002D66D08D48007800284DD00A20DE
:1039800093FBF0F100FB1130844911F810008449D9
:103990000870022C0DDB0A2093FBF0F00A2190FB4B
:1039A000F1F201FB12007D4911F810007C494870CA
:1039B00004E07A4890F82C0079494870032C0DDB1C
:1039C000642093FBF0F00A2190FBF1F201FB12005E
:1039D000724911F810007249887004E06F4890F83D
:1039E0002C006F498870042C0EDB4FF47A7093FB27
:1039F000F0F00A2190FBF1F201FB1200674911F887
:103A000010006749C87004E0644890F82C006449CD
:103A1000C8700020654908705EE0604890F82C008E
:103A20005F4908705D4890F82C0048705B4890F83A
:103A30002C008870594890F82C00C87001205B4910
:103A4000087049E00A2093FBF0F100FB1130534964
:103A500011F8100052490870022C0DDB0A2093FB6C
:103A6000F0F00A2190FBF1F201FB12004B4911F832
:103A700010004B49487004E0484890F82C00484931
:103A80004870032C0DDB642093FBF0F00A2190FBBF
:103A9000F1F201FB1200414911F810004049887011
:103AA00004E03E4890F82C003D498870042C0EDB61
:103AB0004FF47A7093FBF0F00A2190FBF1F201FBD6
:103AC0001200364911F810003549C87004E0334837
:103AD00090F82C003249C870304890F82A003049DC
:103AE00008712E4890F8220048712C4890F8340054
:103AF00088712A4890F82800C87130BD274890F88E
:103B0000460027490870254890F846004870234829
:103B100090F846008870214890F84600C870244804
:103B2000007888B11D4890F82C0008711B4890F867
:103B30002E0048711948007F88711848807EC8712E
:103B400000201B49087013E0144890F82C00144919
:103B50000871124890F82C004871104890F82C0019
:103B600088710E4890F82C00C87101201049087027
:103B7000704730B503460D461846FFF798F80446DF
:103B8000002D77D00B48007800285DD00A2093FBE9
:103B9000F0F100FB113001490EE0000088860008BA
:103BA000A40100203C0000203D0000203E00002039
:103BB0003F0000204000002011F81000FE4908706E
:103BC000022C0DDB0A2093FBF0F00A2190FBF1F2AE
:103BD00001FB1200F94911F81000F749487004E0A0
:103BE000F64890F82C00F4494870032C0DDB642053
:103BF00093FBF0F00A2190FBF1F201FB1200EF4978
:103C000011F81000EC49887004E0EC4890F82C00A2
:103C1000E9498870042C0EDB4FF47A7093FBF0F0C6
:103C20000A2190FBF1F201FB1200E44911F81000A7
:103C3000E149C87004E0E14890F82C00DE49C87002
:103C40000020DF4908706EE0DC4890F82C00DA496B
:103C50000870DA4890F82C004870D84890F82C008A
:103C60008870D64890F82C00C8700120D44908709C
:103C700059E0FFE70A2093FBF0F100FB1130CF4938
:103C800011F81000CC490870022C0DDB0A2093FBC0
:103C9000F0F00A2190FBF1F201FB1200C74911F884
:103CA0001000C549487004E0C44890F82C00C2498F
:103CB0004870032C0DDB642093FBF0F00A2190FB8D
:103CC000F1F201FB1200BD4911F81000BA498870E9
:103CD00004E0BA4890F82C00B7498870042C0EDB39
:103CE0004FF47A7093FBF0F00A2190FBF1F201FBA4
:103CF0001200B24911F81000AF49C87004E0AF4893
:103D000090F82C00AC49C870AC4890F82C00AA4937
:103D10000871AA4890F82E004871A848007F887161
:103D2000A648807EC87130BD30B504460B461846A3
:103D3000FEF7BDFF0546012C3AD1A04890F82C00B3
:103D40009D4908709D4890F82C0048709B4890F859
:103D50002C008870994890F82C00C8709948007819
:103D600088B1964880780871944890F82A00487184
:103D70009248007F8871914890F82800C87100200F
:103D8000904908708FE08D4890F82C008A4908719E
:103D90008A4890F82C004871884890F82C00887167
:103DA000864890F82C00C8710120864908707AE096
:103DB000022C59D10A20B3FBF0F100FB11307F49EE
:103DC00011F810007C490870022D0DDB0A20B3FBAE
:103DD000F0F00A21B0FBF1F201FB1200774911F873
:103DE00010007549487004E0744890F82C0072493E
:103DF0004870032D0DDB6420B3FBF0F00A21B0FB0B
:103E0000F1F201FB12006D4911F810006A49887047
:103E100004E06A4890F82C0067498870042D0EDB96
:103E20004FF47A70B3FBF0F00A21B0FBF1F201FB22
:103E30001200624911F810005F49C87004E05F4841
:103E400090F82C005C49C8705C4880785A49087129
:103E50005A4890F82A0048715848007F887157489E
:103E600090F82800C8711EE0544890F82C00524980
:103E70000870524890F82C004870504890F82C0078
:103E800088704E4890F82C00C8704C4880780871B3
:103E90004A4890F82A0048714848007F887147488E
:103EA00090F82800C87130BD70B504460E46134620
:103EB0001846FEF7FCFE0546012C3AD13F4890F823
:103EC0002C003D4908703D4890F82C0048703B4854
:103ED00090F82C008870394890F82C00C8703A4847
:103EE000007888B1354800790871344890F82A0084
:103EF00048713248007F8871304890F82800C871B6
:103F00000020314908709AE02C4890F82C002A498A
:103F100008712A4890F82C004871284890F82C0025
:103F20008871264890F82C00C87101202649087035
:103F300085E0022C64D10A20B3FBF0F100FB1130C4
:103F40001E4911F810001C490870022D0DDB0A20D3
:103F5000B3FBF0F00A21B0FBF1F201FB12001749AC
:103F600011F810001449487004E0144890F82C002F
:103F700011494870032D0DDB6420B3FBF0F00A21DA
:103F8000B0FBF1F201FB12000C4911F810000A49D4
:103F9000887004E0094890F82C0007498870042DC7
:103FA00019DB4FF47A70B3FBF0F00A21B0FBF1F2A9
:103FB00001FB1200014909E0A401002088860008E5
:103FC00040000020410000204200002011F81000B5
:103FD000FC49C87004E0FC4890F82C00F949C8700E
:103FE000F9480079F7490871F74890F82A004871B4
:103FF000F548007F8871F44890F82800C8711EE0E9
:10400000F14890F82C00EF490870EF4890F82C0028
:104010004870ED4890F82C008870EB4890F82C0020
:10402000C870E94800790871E74890F82A0048719B
:10403000E548007F8871E44890F82800C87170BD99
:1040400070B504460E4615464FF40041DF48FCF7B4
:1040500094FE0446012C0BD156B94DB9DA4890F8BC
:104060003C00D94991F83E100843D649087263E0F4
:1040700044B9012E06D12DB9D34890F84200D14958
:10408000087259E044B93EB9012D05D1CE4890F8E7
:104090004400CC4908724FE0012C0FD10ED16DB90C
:1040A000C94890F83C00C84991F83E100843C649F9
:1040B00091F842100843C34908723DE06CB9012CE5
:1040C0000BD1012D09D1C04890F84200BE4991F8AA
:1040D00044100843BB4908722EE0012C10D17CB972
:1040E000012D0DD1B84890F83C00B74991F83E1029
:1040F0000843B54991F844100843B24908721BE0DF
:10410000012C14D113D1012D11D1AF4890F83C00EE
:10411000AD4991F83E100843AB4991F8421008436D
:10412000A94991F844100843A649087204E0A6483A
:1041300090F82C00A349087270BDA34890F82C0099
:10414000A0490870A04890F82C004870A04800785A
:1041500000F0100088B19E48007820F010009C49C3
:1041600008709948807E97498870974890F8240095
:10417000C8709548007F08710AE09348807E914995
:104180008870914890F82400C8708F48007F0871AB
:104190008D4890F82C008B4948718B4890F82C0082
:1041A0008871894890F82C00C8717047864890F84B
:1041B0002A0084490870844890F828004870824892
:1041C00090F84E0088708048807EC8707E4890F8D5
:1041D0002C0008717C4890F82C0048717A4890F8BF
:1041E0002C008871784890F82C00C8717047764888
:1041F00090F82A0073490870734890F836004870A8
:10420000714890F8240088706F4890F83600C870A4
:104210006D4890F82C0008716B4890F82C0048719C
:10422000694890F82C008871674890F82C00C87194
:10423000704770B504460B461846FEF738FD054634
:104240000A20B3FBF0F100FB11305F4911F81000B8
:104250005C490870022D0DDB0A20B3FBF0F00A2147
:10426000B0FBF1F201FB1200574911F8100055495B
:10427000487004E0544890F82C0052494870032DCF
:104280000DDB6420B3FBF0F00A21B0FBF1F201FB7F
:1042900012004D4911F810004A49887004E04A485C
:1042A00090F82C0047498870042D0EDB4FF47A708B
:1042B000B3FBF0F00A21B0FBF1F201FB120042491E
:1042C00011F810003F49C87004E03F4890F82C00F6
:1042D0003C49C870042D0EDB4FF47A70B3FBF0F04C
:1042E0000A21B0FBF1F201FB1200374911F810006E
:1042F0003449C87004E0344890F82C003149C87043
:104300002046FEF7D4FC06460A2094FBF0F100FBA1
:1043100011402D4911F810002A490871022E0DDBB9
:104320000A2094FBF0F00A2190FBF1F201FB12004D
:10433000254911F810002349487104E0224890F8FB
:104340002C0020494871032E0DDB642094FBF0F013
:104350000A2190FBF1F201FB12001B4911F8100039
:104360001849887104E0184890F82C0015498871A4
:104370001548007D1349C87170BD10B50346184635
:10438000FEF795FC0446104890F830000D4908707F
:104390000A2093FBF0F100FB11300B4911F81000DB
:1043A00008494870022C15DB0A2093FBF0F00A2123
:1043B00090FBF1F201FB1200034911F810000149D2
:1043C00088700CE0A401002088860008000C0140E1
:1043D000290100208C4890F82C008C4988708A486C
:1043E00090F846008949C870874890F838000871ED
:1043F0008548007F4871844890F830008871824871
:1044000090F82C00C87110BD704710B5044604F038
:10441000010028B1002240217D48FCF7CCFC04E0DB
:10442000012240217A48FCF7C6FC04F0020030B1BA
:1044300000224FF480717648FCF7BDFC04E00122B5
:1044400011027348FCF7B7FC04F0040028B1002205
:1044500008216F48FCF7AFFC04E0012208216C48FA
:10446000FCF7A9FC04F0080030B100224FF4007101
:104470006748FCF7A0FC04E0012251026448FCF705
:104480009AFC04F0100028B1002280216048FCF75B
:1044900092FC04E0012280215D48FCF78CFC04F0D2
:1044A000200028B1002220215948FCF784FC04E0B8
:1044B000012220215648FCF77EFC04F0400028B180
:1044C000002210215248FCF776FC04E00122102162
:1044D0004F48FCF770FC10BD00F0010121B14FF412
:1044E00000414C4A116004E04FF40041494A121D5A
:1044F000116000F0020121B14FF40061454A1160E2
:1045000004E04FF40061434A121D116000F0040101
:1045100021B14FF400713F4A116004E04FF4007183
:104520003C4A121D116000F0080121B14FF4805186
:10453000384A116004E04FF48051364A121D116070
:1045400000F0100121B14FF40051334A116103E032
:104550004FF40051304A516100F0200121B14FF475
:1045600080412D4A116103E04FF480412A4A516194
:1045700000F0400121B14FF40041274A116103E0EE
:104580004FF40041244A516100F0800119B1022129
:10459000224A116003E00221204A121D116000F43A
:1045A000807119B101211D4A116003E001211B4AEC
:1045B000121D1160704710B5144819490978405C04
:1045C0001849087018481649097830F8110015493B
:1045D00048600020FFF719FF12494868FFF77CFF89
:1045E00010490878FFF711FF0E494868FFF774FF7C
:1045F0000B4801780078401C094A1070082902DB3A
:1046000000201146087010BD88860008A401002013
:10461000000C01401008014000100140101401403E
:1046200032000020280000207686000808B5C04827
:10463000C0490860C01488800D208871002048811E
:104640000861C871152008771F2008720C20486186
:1046500078208861B648B8490860401488800D20E9
:104660008871002048810861C871152008771F20D3
:1046700008720C20486178208861AD48AF49086015
:104680004FF4804088800D208871002048810861A7
:10469000C871152008771F2008720C204861782007
:1046A0008861A348A6490860001588800D2088719C
:1046B000002048810861C871152008771F20087202
:1046C0000C2048617820886128208DF803000220A2
:1046D0008DF8020099488088ADF800009749086875
:1046E0006946FCF7B7FA96488088ADF8000094490F
:1046F00008686946FCF7AEFA8F488088ADF800007C
:104700008D4908686946FCF7A5FA8A488088ADF8A3
:104710000000884908686946FCF79CFA08BD817961
:104720000D2917D18269016991420AD321210172B1
:10473000C17951BB002101614189491C09B2418104
:1047400023E020210172002101614189491C09B245
:1047500041811AE081790B2908D1202101720021C1
:1047600001614189491C09B241810EE081790C291E
:104770000BD182690169914207D321210172002185
:1047800001614189491C09B24181704770B50446F5
:104790000025A1882068FCF7F0FA0546207F16283E
:1047A00004D10DB9012070BD0020FCE7207F152841
:1047B00005D1012D01D10120F5E70020F3E700BF6D
:1047C000F1E710B55C48FFF7E1FF012807D15A482F
:1047D0000069401C584908610120C87106E056482C
:1047E000FFF7D4FF10B900205349C871524800693F
:1047F00038B15148FFF7CAFF18B94F48FFF78FFF8C
:104800000DE04D4800694C498969884207D94A48FA
:10481000FFF7BCFF012802D14748FFF780FF45485A
:10482000FFF7B4FF012807D142480069401C414905
:1048300008610120C87106E03E48FFF7A7FF10B9E4
:1048400000203C49C8713B48006938B13948FFF73E
:104850009DFF18B93748FFF762FF0DE03548006942
:1048600034498969884207D93248FFF78FFF012808
:1048700002D13048FFF753FF3048FFF787FF012888
:1048800007D12E480069401C2C4908610120C871DD
:1048900006E02A48FFF77AFF10B900202749C871BF
:1048A0002648006938B12548FFF770FF18B923483A
:1048B000FFF735FF0DE021480069204989698842EA
:1048C00007D91E48FFF762FF012802D11B48FFF7F6
:1048D00026FF1B48FFF75AFF012807D11848006937
:1048E000401C174908610120C87106E01448FFF711
:1048F0004DFF10B900201249C8711148006938B144
:104900000F48FFF743FF18B90D48FFF708FF0DE008
:104910000B4800690A498969884207D90848FFF7A6
:1049200035FF012802D10648FFF7F9FE10BD00004F
:10493000000C0140B0010020D0010020F001002057
:104940001002002010B5FD48007800F0100038B1CA
:10495000FA48007820F01000F8490870FEF7C5FF0B
:10496000EDE02220F6490870F648C079A0B9F64873
:10497000C07988B9F148007800F01000C0B1EF4864
:10498000007820F01000ED490870ED49B1F90200FF
:104990000121FEF7E7FF0BE0E848007820F0100067
:1049A000E6490870E649B1F902000021FEF7DAFF96
:1049B000E448B0F90A00E5490978884211D0E14895
:1049C000007A20280DD1DF48807AE0490870002065
:1049D000DC494881DA484088401C00B2D849488008
:1049E00042E0D848C07901283BD1D648007A212836
:1049F00037D10020D349488108460069B0F5C87F07
:104A00000ED2084600690A21B0FBF1F201FB120048
:104A100030BBCB484088401C00B2C949488023E0E5
:104A2000C8480069B0F5C87F13D9C6480069B0F519
:104A3000487F0ED2C34800690521B0FBF1F201FBAB
:104A4000120068B9BE484088401C00B2BC4948808A
:104A50000AE000BFBA484088401C00B2B84948800C
:104A600002E02020B7490872B748B0F90A00B749F8
:104A7000097888420DD0B448007A202809D1002056
:104A8000B1494881AE484088401E00B2AC494880D8
:104A900042E0AD48C07901283BD1AB48007A2128DB
:104AA00037D10020A849488108460069B0F5C87F81
:104AB0000ED2084600690A21B0FBF1F201FB120098
:104AC00030BB9F484088401E00B29D49488023E08B
:104AD0009D480069B0F5C87F13D99B480069B0F5BF
:104AE000487F0ED2984800690521B0FBF1F201FB26
:104AF000120068B992484088401E00B29049488030
:104B00000AE000BF8E484088401E00B28C494880B1
:104B100002E020208C4908728948B0F9020042F274
:104B20000F71884203DB08468549488007E08448C6
:104B3000B0F90200002802DC002081494880844846
:104B4000007A202804D18248408906283FF409AF22
:104B500010BD10B57948007800F0100038B17748E2
:104B6000007820F0100075490870FEF7A8FDFBE002
:104B70002120734908707348C079A0B97248C07980
:104B800088B96E48007800F01000C0B16B4800781A
:104B900020F01000694908706949B1F9020001214B
:104BA000FEF7C9FD0BE06548007820F0200063495E
:104BB00008706349B1F902000021FEF7BCFD6148AD
:104BC000B0F90A0063490978884211D05D48007A3B
:104BD00020280DD15B48807A5E4908700020594931
:104BE000488157484088401C00B25549488042E0FF
:104BF0005448C07901283BD15248007A212837D146
:104C000000205049488108460069B0F5C87F0ED29F
:104C1000084600690A21B0FBF1F201FB120030BB2B
:104C200047484088401C00B24549488023E0454839
:104C30000069B0F5C87F13D942480069B0F5487FD4
:104C40000ED2404800690521B0FBF1F201FB1200D1
:104C500068B93B484088401C00B2394948800AE0A6
:104C600000BF37484088401C00B23549488002E008
:104C70002020344908723448B0F90A0035490978CF
:104C800088420DD03048007A202809D100202E49D2
:104C900048812B484088401E00B22949488042E0A4
:104CA0002948C07901283BD12748007A212837D1EB
:104CB00000202549488108460069B0F5C87F0ED21A
:104CC000084600690A21B0FBF1F201FB120030BB7B
:104CD0001B484088401E00B21949488023E01A480A
:104CE0000069B0F5C87F13D917480069B0F5487F4F
:104CF0000ED2154800690521B0FBF1F201FB12004C
:104D000068B90F484088401E00B20D4948800AE04B
:104D100000BF0B484088401E00B20949488002E0AD
:104D20002020094908720648B0F9020042F20F71CA
:104D3000884211DB08460249488015E0290100201D
:104D400050000020F001002010020020610000202F
:104D5000D001002060000020FB48B0F902000028CC
:104D600002DC0020F8494880F848007A202804D165
:104D7000F648408906283FF4FBAE10BD10B5F44854
:104D8000007800F0100038B1F148007820F01000F1
:104D9000EF490870FEF790FBEDE02020EA4908702B
:104DA000EC48C079A0B9EC48C07988B9E8480078E7
:104DB00000F01000C0B1E648007820F01000E4498F
:104DC0000870E149B1F902000121FEF7AFFB0BE0E9
:104DD000DF48007820F01000DD490870DA49B1F9A9
:104DE00002000021FEF7A2FBDA48B0F90A00DB4915
:104DF0000978884211D0D748007A20280DD1D548AB
:104E0000807AD64908700020D2494881CE4840882F
:104E1000401C00B2CC49488042E0CE48C07901280D
:104E20003BD1CC48007A212837D10020C94948819C
:104E300008460069B0F5C87F0ED2084600690A210D
:104E4000B0FBF1F201FB120030BBBF484088401CB0
:104E500000B2BD49488023E0BE480069B0F5C87F74
:104E600013D9BC480069B0F5487F0ED2B948006933
:104E70000521B0FBF1F201FB120068B9B24840888D
:104E8000401C00B2B04948800AE000BFAE484088EC
:104E9000401C00B2AC49488002E02020AD490872B5
:104EA000AD48B0F90A00AD49097888420DD0AA484A
:104EB000007A202809D10020A7494881A2484088CB
:104EC000401E00B2A049488042E0A348C0790128B2
:104ED0003BD1A148007A212837D100209E49488142
:104EE00008460069B0F5C87F0ED2084600690A215D
:104EF000B0FBF1F201FB120030BB93484088401E2A
:104F000000B29149488023E093480069B0F5C87F1A
:104F100013D991480069B0F5487F0ED28E480069D8
:104F20000521B0FBF1F201FB120068B98648408808
:104F3000401E00B2844948800AE000BF8248408891
:104F4000401E00B28049488002E020208249087259
:104F50007D48B0F9020042F20F71884203DB084637
:104F60007949488007E07848B0F90200002802DC5F
:104F70000020754948807548007A202804D173487C
:104F8000408906283FF409AF10BD10B5704800787D
:104F900000F0100038B16E48007820F010006C4925
:104FA0000870FEF74EFA1F206749087010BD10B553
:104FB00041E0FFF7EAFF6748B0F90A00684909785D
:104FC000884217D06348007A202813D16148807A3C
:104FD0006349087000205F49488162480078401C9E
:104FE00040B260490870084690F90000032801DDCE
:104FF000002008705848B0F90A00594909788842D9
:1050000013D05548007A20280FD1002052494881FA
:1050100054480078401E40B252490870084690F942
:105020000000002801DA032008704848B0F90A009F
:10503000052800DD03E04B4800780028B9D000BF08
:105040003DE0FFF79BFE4348B0F90A004449097868
:10505000884213D03F48007A20280FD100203D49D4
:10506000488140480078401C40B23E4908700846DC
:1050700090F90000032801DD002008703648B0F9DF
:105080000A0037490978884213D03348007A20282B
:105090000FD100203049488132480078401E40B28C
:1050A00030490870084690F90000002801DA032012
:1050B00008702648B0F90A00062800DD03E02948F8
:1050C00000780128BDD000BF4EE0FFF742FD214827
:1050D000B0F90A0022490978884213D01D48007AA5
:1050E00020280FD100201B4948811E480078401C11
:1050F00040B21C490870084690F90000032801DD01
:10510000002008701448B0F90A001549097888424F
:1051100013D01148007A20280FD100200E49488171
:1051200010480078401E40B20E490870084690F9B9
:105130000000002801DA032008700448B0F90A00D2
:10514000062811DD14E0000050000020D0010020EE
:1051500029010020F0010020100200205F00002043
:105160005E00002058000020FE4800780228ACD0E5
:1051700000BF3DE0FFF7E6FBFB48B0F90A00FB4942
:105180000978884213D0F848007A20280FD10020EF
:10519000F5494881F3480078401C40B2F149087055
:1051A000084690F90000032801DD00200870F0484F
:1051B000B0F90A00ED490978884213D0EC48007A2A
:1051C00020280FD10020EA494881E6480078401E97
:1051D00040B2E4490870084690F90000002801DA5E
:1051E00003200870E348B0F90A00062800DD03E058
:1051F000DC4800780328BDD000BF10BD10B50024E6
:10520000DD480088FEF7A6F8D748B0F90A00DB4968
:105210000978884211D0D448007A20280DD1D2488C
:10522000807AD64908700020CF494881D24800884A
:10523000401CD149088001245AE0CB48C07901289C
:1052400053D1C948007A21284FD10020C64948814E
:1052500008460069B0F5C87F16D2084600690A21E1
:10526000B0FBF1F201FB1200002841D1C4480068F4
:1052700001283DD10020C2490860BF480088401C79
:10528000BD490880012433E0B7480069B0F5C87F04
:105290001AD9B5480069B0F5487F15D2B2480069FF
:1052A0000521B0FBF1F201FB120008BBB448006815
:1052B00001281DD10020B2490860AF480088801C39
:1052C000AD490880012413E00020804210D1AC4891
:1052D000006801280CD10020A9490860A648008870
:1052E000401DA5490880012402E020209E49087243
:1052F0009F48B0F90A00A149097888420DD09C481E
:10530000007A202809D10020994948819A480088CC
:10531000401E99490880012459E09548C079012828
:1053200052D19348007A21284ED1002090494881DB
:1053300008460069B0F5C87F15D2084600690A2101
:10534000B0FBF1F201FB120060BB8D480068012840
:105350003DD100208A49086087480088401E864960
:105360000880012433E082480069B0F5C87F1AD96B
:105370007F480069B0F5487F15D27D480069052156
:10538000B0FBF1F201FB120060B97D480068012812
:105390001DD100207A49086077480088801E764930
:1053A0000880012413E00020804210D17448006876
:1053B00001280CD10020724908606F480088401F06
:1053C0006D490880012402E02020694908726A487A
:1053D0000088012803DC01206749088008E066484E
:1053E00000884FF6FF71884202DB08466249088058
:1053F0006448007800F0100060B1012C0AD16148C7
:10540000007820F010005F4908705B4801885E4812
:1054100000F0C9FC10BD10B500245C480068FDF721
:1054200025FF5148B0F90A0059490978884211D03E
:105430004D48007A20280DD14B48807A5449087095
:1054400000204949488151480068401C4F49086084
:1054500001245AE04448C079012853D14248007AD7
:1054600021284FD100204049488108460069B0F505
:10547000C87F16D2084600690A21B0FBF1F201FB91
:105480001200002841D13E48006801283DD100208B
:105490003B4908603D480068401C3C4908600124C5
:1054A00033E031480069B0F5C87F1AD92E48006949
:1054B000B0F5487F15D22C4800690521B0FBF1F208
:1054C00001FB120008BB2E48006801281DD10020F6
:1054D0002B4908602D480068801C2C490860012475
:1054E00013E00020804210D12548006801280CD12B
:1054F00000202349086025480068401D23490860B2
:10550000012402E02020184908721948B0F90A0065
:105510001F49097888420DD01548007A202809D102
:1055200000201349488119480068401E1749086047
:10553000012472E00E48C07901286BD10C48007A32
:10554000212867D100200A49488108460069B0F542
:10555000C87F2ED2084600690A21B0FBF1F201FB98
:10556000120017E058000020F00100205E0000202B
:1055700010020020D0010020480000205D00002023
:10558000840100202901002000B000084400002010
:105590005C00002060BBFD48006801283DD1002070
:1055A000FA490860FA480068401EF9490860012479
:1055B00033E0F8480069B0F5C87F1AD9F5480069AA
:1055C000B0F5487F15D2F34800690521B0FBF1F230
:1055D00001FB120060B9ED48006801281DD10020D0
:1055E000EA490860EA480068801EE9490860012429
:1055F00013E00020804210D1E448006801280CD15B
:105600000020E2490860E2480068401FE049086065
:10561000012402E02020DF490872DD4800680128EB
:1056200003DC0120DA49086008E0D94800684FF639
:10563000FF71884202DB0846D5490860D6480078E9
:1056400000F0100060B1012C0AD1D348007820F09E
:105650001000D1490870CE480168D04800F0A3FB83
:1056600010BD10B50024CE4890F90000FEF785FE6D
:10567000CC48B0F90A00CC490978884212D0C94810
:10568000007A20280ED1C748807AC74908700020C8
:10569000C4494881C2480078401C40B2C0490870E3
:1056A00001245DE0BF48C079012856D1BD48007A89
:1056B000212852D10020BB49488108460069B0F535
:1056C000C87F17D2084600690A21B0FBF1F201FB3E
:1056D0001200002844D1AD480068012840D10020C4
:1056E000AA490860AE480078401C40B2AC49087036
:1056F000012435E0AB480069B0F5C87F1BD9A94843
:105700000069B0F5487F16D2A64800690521B0FBB4
:10571000F1F201FB1200F8B99C48006801281FD182
:1057200000209A4908609E480078801C40B29C493D
:105730000870012414E00020804211D193480068D1
:1057400001280DD100209149086095480078401D3E
:1057500040B293490870012402E020209149087268
:105760008C48B0F90A009049097888420ED08948DF
:10577000007A20280AD1002086494881884800788C
:10578000401E40B28649087001245CE08148C0791F
:10579000012855D17F48007A212851D100207D4928
:1057A000488108460069B0F5C87F16D208460069EE
:1057B0000A21B0FBF1F201FB120070BB73480068D4
:1057C000012840D100207149086075480078401ECA
:1057D00040B273490870012435E06E480069B0F5A5
:1057E000C87F1BD96B480069B0F5487F16D269485D
:1057F00000690521B0FBF1F201FB120068B96348B2
:10580000006801281FD100206049086064480078C2
:10581000801E40B262490870012414E000208042DA
:1058200011D15A48006801280DD10020574908605D
:105830005B480078401F40B259490870012402E0DB
:10584000202054490872564890F90000012803DCD2
:1058500001205349087007E0514890F900003228B0
:1058600002DB32204E4908704B48007800F01000EF
:1058700068B1012C0BD14848007820F0100046494F
:105880000870474890F90010484800F08CFA10BDA5
:1058900010B50024464801684648B0F90000FEF7FC
:1058A000C8FC4048B0F90A0043490978884212D040
:1058B0003C48007A20280ED13A48807A3E49087048
:1058C0000020384948813B480088401C00B23949D3
:1058D0000880012476E03348C07901286FD131482F
:1058E000007A21286BD100202E49488108460069A2
:1058F000B0F5C87F17D2084600690A21B0FBF1F263
:1059000001FB120000285DD120480068012859D110
:1059100000201E49086027480088401C00B2254925
:10592000088001244EE01F480069B0F5C87F1BD9EC
:105930001C480069B0F5487F16D21A480069052155
:10594000B0FBF1F201FB1200F8B910480068012821
:1059500038D100200D49086016480088801C00B22C
:105960001449088001242DE0002080422AD10748F4
:105970000068012826D10020044908600D480088ED
:10598000401D00B20B49088001241BE08401002067
:10599000440000201002002029010020009C000883
:1059A0004C000020F00100205B00002000C0000837
:1059B000100100204A0000205A000020FFE72020AC
:1059C000C5490872C548B0F90A00C5490978884236
:1059D0000ED0C248007A20280AD10020BF49488151
:1059E000C0480088401E00B2BE49088001245CE027
:1059F000BA48C079012855D1B848007A212851D138
:105A00000020B649488108460069B0F5C87F16D223
:105A1000084600690A21B0FBF1F201FB120070BBDD
:105A2000B1480068012840D10020AF490860AD4866
:105A30000088401E00B2AB490880012435E0A74829
:105A40000069B0F5C87F1BD9A4480069B0F5487F4C
:105A500016D2A24800690521B0FBF1F201FB120049
:105A600068B9A148006801281FD100209E4908603C
:105A70009C480088801E00B29A490880012414E0E6
:105A80000020804211D19848006801280DD10020E3
:105A90009549086093480088401F00B291490880EA
:105AA000012402E020208D4908728E48B0F90000E0
:105AB000012803DC01208B49088007E08948B0F900
:105AC0000000642802DB642086490880874800784B
:105AD00000F0100068B1012C0BD18448007820F050
